{
  "address": "0xaAb3c4d32BA924c61A8Ce2ca12164CD1A7520c46",
  "abi": [
    {
      "inputs": [
        {
          "internalType": "address",
          "name": "_VRFCoordinator",
          "type": "address"
        },
        {
          "internalType": "address",
          "name": "_linkToken",
          "type": "address"
        },
        {
          "internalType": "bytes32",
          "name": "_keyHash",
          "type": "bytes32"
        }
      ],
      "stateMutability": "nonpayable",
      "type": "constructor"
    },
    {
      "anonymous": false,
      "inputs": [
        {
          "indexed": true,
          "internalType": "address",
          "name": "owner",
          "type": "address"
        },
        {
          "indexed": true,
          "internalType": "address",
          "name": "approved",
          "type": "address"
        },
        {
          "indexed": true,
          "internalType": "uint256",
          "name": "tokenId",
          "type": "uint256"
        }
      ],
      "name": "Approval",
      "type": "event"
    },
    {
      "anonymous": false,
      "inputs": [
        {
          "indexed": true,
          "internalType": "address",
          "name": "owner",
          "type": "address"
        },
        {
          "indexed": true,
          "internalType": "address",
          "name": "operator",
          "type": "address"
        },
        {
          "indexed": false,
          "internalType": "bool",
          "name": "approved",
          "type": "bool"
        }
      ],
      "name": "ApprovalForAll",
      "type": "event"
    },
    {
      "anonymous": false,
      "inputs": [
        {
          "indexed": true,
          "internalType": "address",
          "name": "_minter",
          "type": "address"
        },
        {
          "indexed": true,
          "internalType": "uint256",
          "name": "_tokenID",
          "type": "uint256"
        },
        {
          "indexed": false,
          "internalType": "uint256[7]",
          "name": "random_numbers",
          "type": "uint256[7]"
        }
      ],
      "name": "Mint",
      "type": "event"
    },
    {
      "anonymous": false,
      "inputs": [
        {
          "indexed": true,
          "internalType": "address",
          "name": "previousOwner",
          "type": "address"
        },
        {
          "indexed": true,
          "internalType": "address",
          "name": "newOwner",
          "type": "address"
        }
      ],
      "name": "OwnershipTransferred",
      "type": "event"
    },
    {
      "anonymous": false,
      "inputs": [
        {
          "indexed": true,
          "internalType": "address",
          "name": "from",
          "type": "address"
        },
        {
          "indexed": true,
          "internalType": "address",
          "name": "to",
          "type": "address"
        },
        {
          "indexed": true,
          "internalType": "uint256",
          "name": "tokenId",
          "type": "uint256"
        }
      ],
      "name": "Transfer",
      "type": "event"
    },
    {
      "inputs": [],
      "name": "LINK_token",
      "outputs": [
        {
          "internalType": "contract IERC20",
          "name": "",
          "type": "address"
        }
      ],
      "stateMutability": "view",
      "type": "function"
    },
    {
      "inputs": [],
      "name": "MAX_SUPPLY",
      "outputs": [
        {
          "internalType": "uint256",
          "name": "",
          "type": "uint256"
        }
      ],
      "stateMutability": "view",
      "type": "function"
    },
    {
      "inputs": [],
      "name": "MINT_PRICE",
      "outputs": [
        {
          "internalType": "uint256",
          "name": "",
          "type": "uint256"
        }
      ],
      "stateMutability": "view",
      "type": "function"
    },
    {
      "inputs": [
        {
          "internalType": "uint256",
          "name": "tokenId",
          "type": "uint256"
        },
        {
          "internalType": "string",
          "name": "_tokenURI",
          "type": "string"
        }
      ],
      "name": "_setTokenURI",
      "outputs": [],
      "stateMutability": "nonpayable",
      "type": "function"
    },
    {
      "inputs": [
        {
          "internalType": "address",
          "name": "to",
          "type": "address"
        },
        {
          "internalType": "uint256",
          "name": "tokenId",
          "type": "uint256"
        }
      ],
      "name": "approve",
      "outputs": [],
      "stateMutability": "nonpayable",
      "type": "function"
    },
    {
      "inputs": [
        {
          "internalType": "address",
          "name": "owner",
          "type": "address"
        }
      ],
      "name": "balanceOf",
      "outputs": [
        {
          "internalType": "uint256",
          "name": "",
          "type": "uint256"
        }
      ],
      "stateMutability": "view",
      "type": "function"
    },
    {
      "inputs": [],
      "name": "claim",
      "outputs": [
        {
          "internalType": "bytes32",
          "name": "requestId",
          "type": "bytes32"
        }
      ],
      "stateMutability": "payable",
      "type": "function"
    },
    {
      "inputs": [
        {
          "internalType": "uint256",
          "name": "tokenId",
          "type": "uint256"
        }
      ],
      "name": "getApproved",
      "outputs": [
        {
          "internalType": "address",
          "name": "",
          "type": "address"
        }
      ],
      "stateMutability": "view",
      "type": "function"
    },
    {
      "inputs": [
        {
          "internalType": "address",
          "name": "owner",
          "type": "address"
        },
        {
          "internalType": "address",
          "name": "operator",
          "type": "address"
        }
      ],
      "name": "isApprovedForAll",
      "outputs": [
        {
          "internalType": "bool",
          "name": "",
          "type": "bool"
        }
      ],
      "stateMutability": "view",
      "type": "function"
    },
    {
      "inputs": [],
      "name": "name",
      "outputs": [
        {
          "internalType": "string",
          "name": "",
          "type": "string"
        }
      ],
      "stateMutability": "view",
      "type": "function"
    },
    {
      "inputs": [],
      "name": "owner",
      "outputs": [
        {
          "internalType": "address",
          "name": "",
          "type": "address"
        }
      ],
      "stateMutability": "view",
      "type": "function"
    },
    {
      "inputs": [
        {
          "internalType": "uint256",
          "name": "tokenId",
          "type": "uint256"
        }
      ],
      "name": "ownerOf",
      "outputs": [
        {
          "internalType": "address",
          "name": "",
          "type": "address"
        }
      ],
      "stateMutability": "view",
      "type": "function"
    },
    {
      "inputs": [
        {
          "internalType": "bytes32",
          "name": "requestId",
          "type": "bytes32"
        },
        {
          "internalType": "uint256",
          "name": "randomness",
          "type": "uint256"
        }
      ],
      "name": "rawFulfillRandomness",
      "outputs": [],
      "stateMutability": "nonpayable",
      "type": "function"
    },
    {
      "inputs": [],
      "name": "remainingSupply",
      "outputs": [
        {
          "internalType": "uint256",
          "name": "",
          "type": "uint256"
        }
      ],
      "stateMutability": "view",
      "type": "function"
    },
    {
      "inputs": [],
      "name": "renounceOwnership",
      "outputs": [],
      "stateMutability": "nonpayable",
      "type": "function"
    },
    {
      "inputs": [
        {
          "internalType": "address",
          "name": "from",
          "type": "address"
        },
        {
          "internalType": "address",
          "name": "to",
          "type": "address"
        },
        {
          "internalType": "uint256",
          "name": "tokenId",
          "type": "uint256"
        }
      ],
      "name": "safeTransferFrom",
      "outputs": [],
      "stateMutability": "nonpayable",
      "type": "function"
    },
    {
      "inputs": [
        {
          "internalType": "address",
          "name": "from",
          "type": "address"
        },
        {
          "internalType": "address",
          "name": "to",
          "type": "address"
        },
        {
          "internalType": "uint256",
          "name": "tokenId",
          "type": "uint256"
        },
        {
          "internalType": "bytes",
          "name": "_data",
          "type": "bytes"
        }
      ],
      "name": "safeTransferFrom",
      "outputs": [],
      "stateMutability": "nonpayable",
      "type": "function"
    },
    {
      "inputs": [],
      "name": "saleIsActive",
      "outputs": [
        {
          "internalType": "bool",
          "name": "",
          "type": "bool"
        }
      ],
      "stateMutability": "view",
      "type": "function"
    },
    {
      "inputs": [
        {
          "internalType": "address",
          "name": "operator",
          "type": "address"
        },
        {
          "internalType": "bool",
          "name": "approved",
          "type": "bool"
        }
      ],
      "name": "setApprovalForAll",
      "outputs": [],
      "stateMutability": "nonpayable",
      "type": "function"
    },
    {
      "inputs": [
        {
          "internalType": "string",
          "name": "baseURI",
          "type": "string"
        }
      ],
      "name": "setBaseURI",
      "outputs": [],
      "stateMutability": "nonpayable",
      "type": "function"
    },
    {
      "inputs": [
        {
          "internalType": "bytes4",
          "name": "interfaceId",
          "type": "bytes4"
        }
      ],
      "name": "supportsInterface",
      "outputs": [
        {
          "internalType": "bool",
          "name": "",
          "type": "bool"
        }
      ],
      "stateMutability": "view",
      "type": "function"
    },
    {
      "inputs": [],
      "name": "symbol",
      "outputs": [
        {
          "internalType": "string",
          "name": "",
          "type": "string"
        }
      ],
      "stateMutability": "view",
      "type": "function"
    },
    {
      "inputs": [],
      "name": "toggleSale",
      "outputs": [],
      "stateMutability": "nonpayable",
      "type": "function"
    },
    {
      "inputs": [],
      "name": "tokenSupply",
      "outputs": [
        {
          "internalType": "uint256",
          "name": "",
          "type": "uint256"
        }
      ],
      "stateMutability": "view",
      "type": "function"
    },
    {
      "inputs": [
        {
          "internalType": "uint256",
          "name": "tokenId",
          "type": "uint256"
        }
      ],
      "name": "tokenURI",
      "outputs": [
        {
          "internalType": "string",
          "name": "",
          "type": "string"
        }
      ],
      "stateMutability": "view",
      "type": "function"
    },
    {
      "inputs": [
        {
          "internalType": "address",
          "name": "from",
          "type": "address"
        },
        {
          "internalType": "address",
          "name": "to",
          "type": "address"
        },
        {
          "internalType": "uint256",
          "name": "tokenId",
          "type": "uint256"
        }
      ],
      "name": "transferFrom",
      "outputs": [],
      "stateMutability": "nonpayable",
      "type": "function"
    },
    {
      "inputs": [
        {
          "internalType": "address",
          "name": "newOwner",
          "type": "address"
        }
      ],
      "name": "transferOwnership",
      "outputs": [],
      "stateMutability": "nonpayable",
      "type": "function"
    },
    {
      "inputs": [],
      "name": "withdrawBalance",
      "outputs": [],
      "stateMutability": "nonpayable",
      "type": "function"
    },
    {
      "inputs": [],
      "name": "withdrawLink",
      "outputs": [],
      "stateMutability": "nonpayable",
      "type": "function"
    }
  ],
  "transactionHash": "0xd939beeed32139e0cb8afb7af18d41c1943014009c0acb6bf849e9b807017343",
  "args": [
    "0xb3dCcb4Cf7a26f6cf6B120Cf5A73875B7BBc655B",
    "0x01be23585060835e02b77ef475b0cc51aa1e0709",
    "0x2ed0feb3e7fd2022120aa84fab1945545a9f2ffc9076fd6156fa96eaff4c1311"
  ],
  "solcInputHash": "55d7cf22d6d714d6c5083f76e08143a9",
  "bytecode": "0x60c06040526000600a60006101000a81548160ff0219169083151502179055503480156200002c57600080fd5b506040516200505d3803806200505d833981810160405281019062000052919062000398565b82826040518060400160405280600981526020017f436f7669644361747300000000000000000000000000000000000000000000008152506040518060400160405280600881526020017f436f7669644361740000000000000000000000000000000000000000000000008152508160009080519060200190620000d8929190620002ba565b508060019080519060200190620000f1929190620002ba565b5050508173ffffffffffffffffffffffffffffffffffffffff1660a08173ffffffffffffffffffffffffffffffffffffffff1660601b815250508073ffffffffffffffffffffffffffffffffffffffff1660808173ffffffffffffffffffffffffffffffffffffffff1660601b8152505050506200018462000178620001ec60201b60201c565b620001f460201b60201c565b600160088190555081601160006101000a81548173ffffffffffffffffffffffffffffffffffffffff021916908373ffffffffffffffffffffffffffffffffffffffff16021790555080600d8190555067016345785d8a0000600e81905550505050620004c5565b600033905090565b6000600760009054906101000a900473ffffffffffffffffffffffffffffffffffffffff16905081600760006101000a81548173ffffffffffffffffffffffffffffffffffffffff021916908373ffffffffffffffffffffffffffffffffffffffff1602179055508173ffffffffffffffffffffffffffffffffffffffff168173ffffffffffffffffffffffffffffffffffffffff167f8be0079c531659141344cd1fd0a4f28419497f9722a3daafe3b4186f6b6457e060405160405180910390a35050565b828054620002c8906200042c565b90600052602060002090601f016020900481019282620002ec576000855562000338565b82601f106200030757805160ff191683800117855562000338565b8280016001018555821562000338579182015b82811115620003375782518255916020019190600101906200031a565b5b5090506200034791906200034b565b5090565b5b80821115620003665760008160009055506001016200034c565b5090565b6000815190506200037b8162000491565b92915050565b6000815190506200039281620004ab565b92915050565b600080600060608486031215620003ae57600080fd5b6000620003be868287016200036a565b9350506020620003d1868287016200036a565b9250506040620003e48682870162000381565b9150509250925092565b6000620003fb826200040c565b9050919050565b6000819050919050565b600073ffffffffffffffffffffffffffffffffffffffff82169050919050565b600060028204905060018216806200044557607f821691505b602082108114156200045c576200045b62000462565b5b50919050565b7f4e487b7100000000000000000000000000000000000000000000000000000000600052602260045260246000fd5b6200049c81620003ee565b8114620004a857600080fd5b50565b620004b68162000402565b8114620004c257600080fd5b50565b60805160601c60a05160601c614b5e620004ff6000396000818161146d0152612038015260008181610b680152611ffc0152614b5e6000f3fe6080604052600436106101c25760003560e01c8063715018a6116100f7578063a22cb46511610095578063da0239a611610064578063da0239a6146105e7578063e985e9c514610612578063eb8d24441461064f578063f2fde38b1461067a576101c2565b8063a22cb4651461052d578063b88d4fde14610556578063c002d23d1461057f578063c87b56dd146105aa576101c2565b80638da5cb5b116100d15780638da5cb5b146104975780638dc654a2146104c257806394985ddd146104d957806395d89b4114610502576101c2565b8063715018a61461043e5780637824407f146104555780637d8966e414610480576101c2565b806342842e0e11610164578063592756a11161013e578063592756a1146103825780635fd8c710146103ad5780636352211e146103c457806370a0823114610401576101c2565b806342842e0e146103125780634e71d92d1461033b57806355f804b314610359576101c2565b8063081812fc116101a0578063081812fc14610258578063095ea7b31461029557806323b872dd146102be57806332cb6b0c146102e7576101c2565b806301538868146101c757806301ffc9a7146101f057806306fdde031461022d575b600080fd5b3480156101d357600080fd5b506101ee60048036038101906101e991906133bd565b6106a3565b005b3480156101fc57600080fd5b50610217600480360381019061021291906132d8565b6107ca565b6040516102249190613add565b60405180910390f35b34801561023957600080fd5b506102426108ac565b60405161024f9190613b9c565b60405180910390f35b34801561026457600080fd5b5061027f600480360381019061027a919061336b565b61093e565b60405161028c91906139f4565b60405180910390f35b3480156102a157600080fd5b506102bc60048036038101906102b79190613237565b6109c3565b005b3480156102ca57600080fd5b506102e560048036038101906102e09190613131565b610adb565b005b3480156102f357600080fd5b506102fc610b3b565b6040516103099190613f1e565b60405180910390f35b34801561031e57600080fd5b5061033960048036038101906103349190613131565b610b41565b005b610343610b61565b6040516103509190613af8565b60405180910390f35b34801561036557600080fd5b50610380600480360381019061037b919061332a565b610e9a565b005b34801561038e57600080fd5b50610397610f30565b6040516103a49190613b81565b60405180910390f35b3480156103b957600080fd5b506103c2610f56565b005b3480156103d057600080fd5b506103eb60048036038101906103e6919061336b565b61101b565b6040516103f891906139f4565b60405180910390f35b34801561040d57600080fd5b50610428600480360381019061042391906130cc565b6110cd565b6040516104359190613f1e565b60405180910390f35b34801561044a57600080fd5b50610453611185565b005b34801561046157600080fd5b5061046a61120d565b6040516104779190613f1e565b60405180910390f35b34801561048c57600080fd5b5061049561121e565b005b3480156104a357600080fd5b506104ac6112c6565b6040516104b991906139f4565b60405180910390f35b3480156104ce57600080fd5b506104d76112f0565b005b3480156104e557600080fd5b5061050060048036038101906104fb919061329c565b61146b565b005b34801561050e57600080fd5b50610517611507565b6040516105249190613b9c565b60405180910390f35b34801561053957600080fd5b50610554600480360381019061054f91906131fb565b611599565b005b34801561056257600080fd5b5061057d60048036038101906105789190613180565b61171a565b005b34801561058b57600080fd5b5061059461177c565b6040516105a19190613f1e565b60405180910390f35b3480156105b657600080fd5b506105d160048036038101906105cc919061336b565b611788565b6040516105de9190613b9c565b60405180910390f35b3480156105f357600080fd5b506105fc61195c565b6040516106099190613f1e565b60405180910390f35b34801561061e57600080fd5b50610639600480360381019061063491906130f5565b61197a565b6040516106469190613add565b60405180910390f35b34801561065b57600080fd5b50610664611a0e565b6040516106719190613add565b60405180910390f35b34801561068657600080fd5b506106a1600480360381019061069c91906130cc565b611a21565b005b3373ffffffffffffffffffffffffffffffffffffffff166106c26112c6565b73ffffffffffffffffffffffffffffffffffffffff16148061071757503373ffffffffffffffffffffffffffffffffffffffff166106ff8361101b565b73ffffffffffffffffffffffffffffffffffffffff16145b610756576040517f08c379a000000000000000000000000000000000000000000000000000000000815260040161074d90613efe565b60405180910390fd5b61075f82611b19565b61079e576040517f08c379a000000000000000000000000000000000000000000000000000000000815260040161079590613d9e565b60405180910390fd5b80600b600084815260200190815260200160002090805190602001906107c5929190612e8f565b505050565b60007f80ac58cd000000000000000000000000000000000000000000000000000000007bffffffffffffffffffffffffffffffffffffffffffffffffffffffff1916827bffffffffffffffffffffffffffffffffffffffffffffffffffffffff1916148061089557507f5b5e139f000000000000000000000000000000000000000000000000000000007bffffffffffffffffffffffffffffffffffffffffffffffffffffffff1916827bffffffffffffffffffffffffffffffffffffffffffffffffffffffff1916145b806108a557506108a482611b85565b5b9050919050565b6060600080546108bb906141d2565b80601f01602080910402602001604051908101604052809291908181526020018280546108e7906141d2565b80156109345780601f1061090957610100808354040283529160200191610934565b820191906000526020600020905b81548152906001019060200180831161091757829003601f168201915b5050505050905090565b600061094982611b19565b610988576040517f08c379a000000000000000000000000000000000000000000000000000000000815260040161097f90613d7e565b60405180910390fd5b6004600083815260200190815260200160002060009054906101000a900473ffffffffffffffffffffffffffffffffffffffff169050919050565b60006109ce8261101b565b90508073ffffffffffffffffffffffffffffffffffffffff168373ffffffffffffffffffffffffffffffffffffffff161415610a3f576040517f08c379a0000000000000000000000000000000000000000000000000000000008152600401610a3690613e3e565b60405180910390fd5b8073ffffffffffffffffffffffffffffffffffffffff16610a5e611bef565b73ffffffffffffffffffffffffffffffffffffffff161480610a8d5750610a8c81610a87611bef565b61197a565b5b610acc576040517f08c379a0000000000000000000000000000000000000000000000000000000008152600401610ac390613cde565b60405180910390fd5b610ad68383611bf7565b505050565b610aec610ae6611bef565b82611cb0565b610b2b576040517f08c379a0000000000000000000000000000000000000000000000000000000008152600401610b2290613e7e565b60405180910390fd5b610b36838383611d8e565b505050565b61271081565b610b5c8383836040518060200160405280600081525061171a565b505050565b6000600e547f000000000000000000000000000000000000000000000000000000000000000073ffffffffffffffffffffffffffffffffffffffff166370a08231306040518263ffffffff1660e01b8152600401610bbf91906139f4565b60206040518083038186803b158015610bd757600080fd5b505afa158015610beb573d6000803e3d6000fd5b505050506040513d601f19601f82011682018060405250810190610c0f9190613394565b1015610c50576040517f08c379a0000000000000000000000000000000000000000000000000000000008152600401610c4790613c7e565b60405180910390fd5b600a60009054906101000a900460ff16610c9f576040517f08c379a0000000000000000000000000000000000000000000000000000000008152600401610c9690613ede565b60405180910390fd5b60006001610cad6009611fea565b610cb79190614064565b9050612710811115610cfe576040517f08c379a0000000000000000000000000000000000000000000000000000000008152600401610cf590613d3e565b60405180910390fd5b60001515601060003373ffffffffffffffffffffffffffffffffffffffff1673ffffffffffffffffffffffffffffffffffffffff16815260200190815260200160002060009054906101000a900460ff16151514610d91576040517f08c379a0000000000000000000000000000000000000000000000000000000008152600401610d8890613e5e565b60405180910390fd5b67016345785d8a0000341015610ddc576040517f08c379a0000000000000000000000000000000000000000000000000000000008152600401610dd390613c1e565b60405180910390fd5b610dea600d54600e54611ff8565b915033600f600084815260200190815260200160002060006101000a81548173ffffffffffffffffffffffffffffffffffffffff021916908373ffffffffffffffffffffffffffffffffffffffff1602179055506001601060003373ffffffffffffffffffffffffffffffffffffffff1673ffffffffffffffffffffffffffffffffffffffff16815260200190815260200160002060006101000a81548160ff0219169083151502179055505090565b610ea2611bef565b73ffffffffffffffffffffffffffffffffffffffff16610ec06112c6565b73ffffffffffffffffffffffffffffffffffffffff1614610f16576040517f08c379a0000000000000000000000000000000000000000000000000000000008152600401610f0d90613dbe565b60405180910390fd5b80600c9080519060200190610f2c929190612e8f565b5050565b601160009054906101000a900473ffffffffffffffffffffffffffffffffffffffff1681565b610f5e611bef565b73ffffffffffffffffffffffffffffffffffffffff16610f7c6112c6565b73ffffffffffffffffffffffffffffffffffffffff1614610fd2576040517f08c379a0000000000000000000000000000000000000000000000000000000008152600401610fc990613dbe565b60405180910390fd5b3373ffffffffffffffffffffffffffffffffffffffff166108fc479081150290604051600060405180830381858888f19350505050158015611018573d6000803e3d6000fd5b50565b6000806002600084815260200190815260200160002060009054906101000a900473ffffffffffffffffffffffffffffffffffffffff169050600073ffffffffffffffffffffffffffffffffffffffff168173ffffffffffffffffffffffffffffffffffffffff1614156110c4576040517f08c379a00000000000000000000000000000000000000000000000000000000081526004016110bb90613d1e565b60405180910390fd5b80915050919050565b60008073ffffffffffffffffffffffffffffffffffffffff168273ffffffffffffffffffffffffffffffffffffffff16141561113e576040517f08c379a000000000000000000000000000000000000000000000000000000000815260040161113590613cfe565b60405180910390fd5b600360008373ffffffffffffffffffffffffffffffffffffffff1673ffffffffffffffffffffffffffffffffffffffff168152602001908152602001600020549050919050565b61118d611bef565b73ffffffffffffffffffffffffffffffffffffffff166111ab6112c6565b73ffffffffffffffffffffffffffffffffffffffff1614611201576040517f08c379a00000000000000000000000000000000000000000000000000000000081526004016111f890613dbe565b60405180910390fd5b61120b600061215a565b565b60006112196009611fea565b905090565b611226611bef565b73ffffffffffffffffffffffffffffffffffffffff166112446112c6565b73ffffffffffffffffffffffffffffffffffffffff161461129a576040517f08c379a000000000000000000000000000000000000000000000000000000000815260040161129190613dbe565b60405180910390fd5b600a60009054906101000a900460ff1615600a60006101000a81548160ff021916908315150217905550565b6000600760009054906101000a900473ffffffffffffffffffffffffffffffffffffffff16905090565b6112f8611bef565b73ffffffffffffffffffffffffffffffffffffffff166113166112c6565b73ffffffffffffffffffffffffffffffffffffffff161461136c576040517f08c379a000000000000000000000000000000000000000000000000000000000815260040161136390613dbe565b60405180910390fd5b6000601160009054906101000a900473ffffffffffffffffffffffffffffffffffffffff1673ffffffffffffffffffffffffffffffffffffffff166370a08231306040518263ffffffff1660e01b81526004016113c991906139f4565b60206040518083038186803b1580156113e157600080fd5b505afa1580156113f5573d6000803e3d6000fd5b505050506040513d601f19601f820116820180604052508101906114199190613394565b90506114683382601160009054906101000a900473ffffffffffffffffffffffffffffffffffffffff1673ffffffffffffffffffffffffffffffffffffffff166122209092919063ffffffff16565b50565b7f000000000000000000000000000000000000000000000000000000000000000073ffffffffffffffffffffffffffffffffffffffff163373ffffffffffffffffffffffffffffffffffffffff16146114f9576040517f08c379a00000000000000000000000000000000000000000000000000000000081526004016114f090613e1e565b60405180910390fd5b61150382826122a6565b5050565b606060018054611516906141d2565b80601f0160208091040260200160405190810160405280929190818152602001828054611542906141d2565b801561158f5780601f106115645761010080835404028352916020019161158f565b820191906000526020600020905b81548152906001019060200180831161157257829003601f168201915b5050505050905090565b6115a1611bef565b73ffffffffffffffffffffffffffffffffffffffff168273ffffffffffffffffffffffffffffffffffffffff16141561160f576040517f08c379a000000000000000000000000000000000000000000000000000000000815260040161160690613c5e565b60405180910390fd5b806005600061161c611bef565b73ffffffffffffffffffffffffffffffffffffffff1673ffffffffffffffffffffffffffffffffffffffff16815260200190815260200160002060008473ffffffffffffffffffffffffffffffffffffffff1673ffffffffffffffffffffffffffffffffffffffff16815260200190815260200160002060006101000a81548160ff0219169083151502179055508173ffffffffffffffffffffffffffffffffffffffff166116c9611bef565b73ffffffffffffffffffffffffffffffffffffffff167f17307eab39ab6107e8899845ad3d59bd9653f200f220920489ca2b5937696c318360405161170e9190613add565b60405180910390a35050565b61172b611725611bef565b83611cb0565b61176a576040517f08c379a000000000000000000000000000000000000000000000000000000000815260040161176190613e7e565b60405180910390fd5b611776848484846126cc565b50505050565b67016345785d8a000081565b606061179382611b19565b6117d2576040517f08c379a00000000000000000000000000000000000000000000000000000000081526004016117c990613dfe565b60405180910390fd5b6000600b600084815260200190815260200160002080546117f2906141d2565b80601f016020809104026020016040519081016040528092919081815260200182805461181e906141d2565b801561186b5780601f106118405761010080835404028352916020019161186b565b820191906000526020600020905b81548152906001019060200180831161184e57829003601f168201915b50505050509050600061187c612728565b9050600081511415611892578192505050611957565b6000825111156118c75780826040516020016118af9291906139d0565b60405160208183030381529060405292505050611957565b600c80546118d4906141d2565b80601f0160208091040260200160405190810160405280929190818152602001828054611900906141d2565b801561194d5780601f106119225761010080835404028352916020019161194d565b820191906000526020600020905b81548152906001019060200180831161193057829003601f168201915b5050505050925050505b919050565b60006119686009611fea565b61271061197591906140ba565b905090565b6000600560008473ffffffffffffffffffffffffffffffffffffffff1673ffffffffffffffffffffffffffffffffffffffff16815260200190815260200160002060008373ffffffffffffffffffffffffffffffffffffffff1673ffffffffffffffffffffffffffffffffffffffff16815260200190815260200160002060009054906101000a900460ff16905092915050565b600a60009054906101000a900460ff1681565b611a29611bef565b73ffffffffffffffffffffffffffffffffffffffff16611a476112c6565b73ffffffffffffffffffffffffffffffffffffffff1614611a9d576040517f08c379a0000000000000000000000000000000000000000000000000000000008152600401611a9490613dbe565b60405180910390fd5b600073ffffffffffffffffffffffffffffffffffffffff168173ffffffffffffffffffffffffffffffffffffffff161415611b0d576040517f08c379a0000000000000000000000000000000000000000000000000000000008152600401611b0490613bde565b60405180910390fd5b611b168161215a565b50565b60008073ffffffffffffffffffffffffffffffffffffffff166002600084815260200190815260200160002060009054906101000a900473ffffffffffffffffffffffffffffffffffffffff1673ffffffffffffffffffffffffffffffffffffffff1614159050919050565b60007f01ffc9a7000000000000000000000000000000000000000000000000000000007bffffffffffffffffffffffffffffffffffffffffffffffffffffffff1916827bffffffffffffffffffffffffffffffffffffffffffffffffffffffff1916149050919050565b600033905090565b816004600083815260200190815260200160002060006101000a81548173ffffffffffffffffffffffffffffffffffffffff021916908373ffffffffffffffffffffffffffffffffffffffff160217905550808273ffffffffffffffffffffffffffffffffffffffff16611c6a8361101b565b73ffffffffffffffffffffffffffffffffffffffff167f8c5be1e5ebec7d5bd14f71427d1e84f3dd0314c0f7b2291e5b200ac8c7c3b92560405160405180910390a45050565b6000611cbb82611b19565b611cfa576040517f08c379a0000000000000000000000000000000000000000000000000000000008152600401611cf190613cbe565b60405180910390fd5b6000611d058361101b565b90508073ffffffffffffffffffffffffffffffffffffffff168473ffffffffffffffffffffffffffffffffffffffff161480611d7457508373ffffffffffffffffffffffffffffffffffffffff16611d5c8461093e565b73ffffffffffffffffffffffffffffffffffffffff16145b80611d855750611d84818561197a565b5b91505092915050565b8273ffffffffffffffffffffffffffffffffffffffff16611dae8261101b565b73ffffffffffffffffffffffffffffffffffffffff1614611e04576040517f08c379a0000000000000000000000000000000000000000000000000000000008152600401611dfb90613dde565b60405180910390fd5b600073ffffffffffffffffffffffffffffffffffffffff168273ffffffffffffffffffffffffffffffffffffffff161415611e74576040517f08c379a0000000000000000000000000000000000000000000000000000000008152600401611e6b90613c3e565b60405180910390fd5b611e7f8383836127ba565b611e8a600082611bf7565b6001600360008573ffffffffffffffffffffffffffffffffffffffff1673ffffffffffffffffffffffffffffffffffffffff1681526020019081526020016000206000828254611eda91906140ba565b925050819055506001600360008473ffffffffffffffffffffffffffffffffffffffff1673ffffffffffffffffffffffffffffffffffffffff1681526020019081526020016000206000828254611f319190614064565b92505081905550816002600083815260200190815260200160002060006101000a81548173ffffffffffffffffffffffffffffffffffffffff021916908373ffffffffffffffffffffffffffffffffffffffff160217905550808273ffffffffffffffffffffffffffffffffffffffff168473ffffffffffffffffffffffffffffffffffffffff167fddf252ad1be2c89b69c2b068fc378daa952ba7f163c4a11628f55a4df523b3ef60405160405180910390a4505050565b600081600001549050919050565b60007f000000000000000000000000000000000000000000000000000000000000000073ffffffffffffffffffffffffffffffffffffffff16634000aea07f00000000000000000000000000000000000000000000000000000000000000008486600060405160200161206c929190613b13565b6040516020818303038152906040526040518463ffffffff1660e01b815260040161209993929190613a84565b602060405180830381600087803b1580156120b357600080fd5b505af11580156120c7573d6000803e3d6000fd5b505050506040513d601f19601f820116820180604052508101906120eb9190613273565b50600061210e8460003060066000898152602001908152602001600020546127bf565b9050600160066000868152602001908152602001600020546121309190614064565b600660008681526020019081526020016000208190555061215184826127fb565b91505092915050565b6000600760009054906101000a900473ffffffffffffffffffffffffffffffffffffffff16905081600760006101000a81548173ffffffffffffffffffffffffffffffffffffffff021916908373ffffffffffffffffffffffffffffffffffffffff1602179055508173ffffffffffffffffffffffffffffffffffffffff168173ffffffffffffffffffffffffffffffffffffffff167f8be0079c531659141344cd1fd0a4f28419497f9722a3daafe3b4186f6b6457e060405160405180910390a35050565b6122a18363a9059cbb60e01b848460405160240161223f929190613a5b565b604051602081830303815290604052907bffffffffffffffffffffffffffffffffffffffffffffffffffffffff19166020820180517bffffffffffffffffffffffffffffffffffffffffffffffffffffffff838183161783525050505061282e565b505050565b600060016122b46009611fea565b6122be9190614064565b90506000600f600085815260200190815260200160002060009054906101000a900473ffffffffffffffffffffffffffffffffffffffff169050612300612f15565b60005b600781101561242557848160405160200161231f929190613f39565b6040516020818303038152906040528051906020012060001c828260078110612371577f4e487b7100000000000000000000000000000000000000000000000000000000600052603260045260246000fd5b602002018181525050600160648383600781106123b7577f4e487b7100000000000000000000000000000000000000000000000000000000600052603260045260246000fd5b60200201516123c69190614292565b6123d09190614064565b828260078110612409577f4e487b7100000000000000000000000000000000000000000000000000000000600052603260045260246000fd5b602002018181525050808061241d90614235565b915050612303565b5061243060096128f5565b61243a828461290b565b828273ffffffffffffffffffffffffffffffffffffffff167fc259216ea5a43a79dbc484bc761e3b8148023dec190ade5b1d181d2cb82da4496040518060e00160405280856000600781106124b8577f4e487b7100000000000000000000000000000000000000000000000000000000600052603260045260246000fd5b60200201518152602001856001600781106124fc577f4e487b7100000000000000000000000000000000000000000000000000000000600052603260045260246000fd5b6020020151815260200185600260078110612540577f4e487b7100000000000000000000000000000000000000000000000000000000600052603260045260246000fd5b6020020151815260200185600360078110612584577f4e487b7100000000000000000000000000000000000000000000000000000000600052603260045260246000fd5b60200201518152602001856004600781106125c8577f4e487b7100000000000000000000000000000000000000000000000000000000600052603260045260246000fd5b602002015181526020018560056007811061260c577f4e487b7100000000000000000000000000000000000000000000000000000000600052603260045260246000fd5b6020020151815260200185600660078110612650577f4e487b7100000000000000000000000000000000000000000000000000000000600052603260045260246000fd5b60200201518152506040516126659190613ac2565b60405180910390a36000601060008473ffffffffffffffffffffffffffffffffffffffff1673ffffffffffffffffffffffffffffffffffffffff16815260200190815260200160002060006101000a81548160ff0219169083151502179055505050505050565b6126d7848484611d8e565b6126e384848484612929565b612722576040517f08c379a000000000000000000000000000000000000000000000000000000000815260040161271990613bbe565b60405180910390fd5b50505050565b6060600c8054612737906141d2565b80601f0160208091040260200160405190810160405280929190818152602001828054612763906141d2565b80156127b05780601f10612785576101008083540402835291602001916127b0565b820191906000526020600020905b81548152906001019060200180831161279357829003601f168201915b5050505050905090565b505050565b6000848484846040516020016127d89493929190613b3c565b6040516020818303038152906040528051906020012060001c9050949350505050565b6000828260405160200161281092919061398d565b60405160208183030381529060405280519060200120905092915050565b6000612890826040518060400160405280602081526020017f5361666545524332303a206c6f772d6c6576656c2063616c6c206661696c65648152508573ffffffffffffffffffffffffffffffffffffffff16612ac09092919063ffffffff16565b90506000815111156128f057808060200190518101906128b09190613273565b6128ef576040517f08c379a00000000000000000000000000000000000000000000000000000000081526004016128e690613ebe565b60405180910390fd5b5b505050565b6001816000016000828254019250508190555050565b612925828260405180602001604052806000815250612ad8565b5050565b600061294a8473ffffffffffffffffffffffffffffffffffffffff16612b33565b15612ab3578373ffffffffffffffffffffffffffffffffffffffff1663150b7a02612973611bef565b8786866040518563ffffffff1660e01b81526004016129959493929190613a0f565b602060405180830381600087803b1580156129af57600080fd5b505af19250505080156129e057506040513d601f19601f820116820180604052508101906129dd9190613301565b60015b612a63573d8060008114612a10576040519150601f19603f3d011682016040523d82523d6000602084013e612a15565b606091505b50600081511415612a5b576040517f08c379a0000000000000000000000000000000000000000000000000000000008152600401612a5290613bbe565b60405180910390fd5b805181602001fd5b63150b7a0260e01b7bffffffffffffffffffffffffffffffffffffffffffffffffffffffff1916817bffffffffffffffffffffffffffffffffffffffffffffffffffffffff191614915050612ab8565b600190505b949350505050565b6060612acf8484600085612b46565b90509392505050565b612ae28383612c5a565b612aef6000848484612929565b612b2e576040517f08c379a0000000000000000000000000000000000000000000000000000000008152600401612b2590613bbe565b60405180910390fd5b505050565b600080823b905060008111915050919050565b606082471015612b8b576040517f08c379a0000000000000000000000000000000000000000000000000000000008152600401612b8290613c9e565b60405180910390fd5b612b9485612b33565b612bd3576040517f08c379a0000000000000000000000000000000000000000000000000000000008152600401612bca90613e9e565b60405180910390fd5b6000808673ffffffffffffffffffffffffffffffffffffffff168587604051612bfc91906139b9565b60006040518083038185875af1925050503d8060008114612c39576040519150601f19603f3d011682016040523d82523d6000602084013e612c3e565b606091505b5091509150612c4e828286612e28565b92505050949350505050565b600073ffffffffffffffffffffffffffffffffffffffff168273ffffffffffffffffffffffffffffffffffffffff161415612cca576040517f08c379a0000000000000000000000000000000000000000000000000000000008152600401612cc190613d5e565b60405180910390fd5b612cd381611b19565b15612d13576040517f08c379a0000000000000000000000000000000000000000000000000000000008152600401612d0a90613bfe565b60405180910390fd5b612d1f600083836127ba565b6001600360008473ffffffffffffffffffffffffffffffffffffffff1673ffffffffffffffffffffffffffffffffffffffff1681526020019081526020016000206000828254612d6f9190614064565b92505081905550816002600083815260200190815260200160002060006101000a81548173ffffffffffffffffffffffffffffffffffffffff021916908373ffffffffffffffffffffffffffffffffffffffff160217905550808273ffffffffffffffffffffffffffffffffffffffff16600073ffffffffffffffffffffffffffffffffffffffff167fddf252ad1be2c89b69c2b068fc378daa952ba7f163c4a11628f55a4df523b3ef60405160405180910390a45050565b60608315612e3857829050612e88565b600083511115612e4b5782518084602001fd5b816040517f08c379a0000000000000000000000000000000000000000000000000000000008152600401612e7f9190613b9c565b60405180910390fd5b9392505050565b828054612e9b906141d2565b90600052602060002090601f016020900481019282612ebd5760008555612f04565b82601f10612ed657805160ff1916838001178555612f04565b82800160010185558215612f04579182015b82811115612f03578251825591602001919060010190612ee8565b5b509050612f119190612f37565b5090565b6040518060e00160405280600790602082028036833780820191505090505090565b5b80821115612f50576000816000905550600101612f38565b5090565b6000612f67612f6284613f87565b613f62565b905082815260208101848484011115612f7f57600080fd5b612f8a848285614190565b509392505050565b6000612fa5612fa084613fb8565b613f62565b905082815260208101848484011115612fbd57600080fd5b612fc8848285614190565b509392505050565b600081359050612fdf81614ab5565b92915050565b600081359050612ff481614acc565b92915050565b60008151905061300981614acc565b92915050565b60008135905061301e81614ae3565b92915050565b60008135905061303381614afa565b92915050565b60008151905061304881614afa565b92915050565b600082601f83011261305f57600080fd5b813561306f848260208601612f54565b91505092915050565b600082601f83011261308957600080fd5b8135613099848260208601612f92565b91505092915050565b6000813590506130b181614b11565b92915050565b6000815190506130c681614b11565b92915050565b6000602082840312156130de57600080fd5b60006130ec84828501612fd0565b91505092915050565b6000806040838503121561310857600080fd5b600061311685828601612fd0565b925050602061312785828601612fd0565b9150509250929050565b60008060006060848603121561314657600080fd5b600061315486828701612fd0565b935050602061316586828701612fd0565b9250506040613176868287016130a2565b9150509250925092565b6000806000806080858703121561319657600080fd5b60006131a487828801612fd0565b94505060206131b587828801612fd0565b93505060406131c6878288016130a2565b925050606085013567ffffffffffffffff8111156131e357600080fd5b6131ef8782880161304e565b91505092959194509250565b6000806040838503121561320e57600080fd5b600061321c85828601612fd0565b925050602061322d85828601612fe5565b9150509250929050565b6000806040838503121561324a57600080fd5b600061325885828601612fd0565b9250506020613269858286016130a2565b9150509250929050565b60006020828403121561328557600080fd5b600061329384828501612ffa565b91505092915050565b600080604083850312156132af57600080fd5b60006132bd8582860161300f565b92505060206132ce858286016130a2565b9150509250929050565b6000602082840312156132ea57600080fd5b60006132f884828501613024565b91505092915050565b60006020828403121561331357600080fd5b600061332184828501613039565b91505092915050565b60006020828403121561333c57600080fd5b600082013567ffffffffffffffff81111561335657600080fd5b61336284828501613078565b91505092915050565b60006020828403121561337d57600080fd5b600061338b848285016130a2565b91505092915050565b6000602082840312156133a657600080fd5b60006133b4848285016130b7565b91505092915050565b600080604083850312156133d057600080fd5b60006133de858286016130a2565b925050602083013567ffffffffffffffff8111156133fb57600080fd5b61340785828601613078565b9150509250929050565b600061341d8383613958565b60208301905092915050565b613432816140ee565b82525050565b61344181613ff3565b61344b8184614021565b925061345682613fe9565b8060005b8381101561348757815161346e8782613411565b965061347983614014565b92505060018101905061345a565b505050505050565b61349881614100565b82525050565b6134a78161410c565b82525050565b6134be6134b98261410c565b61427e565b82525050565b60006134cf82613ffe565b6134d9818561402c565b93506134e981856020860161419f565b6134f28161437f565b840191505092915050565b600061350882613ffe565b613512818561403d565b935061352281856020860161419f565b80840191505092915050565b6135378161416c565b82525050565b600061354882614009565b6135528185614048565b935061356281856020860161419f565b61356b8161437f565b840191505092915050565b600061358182614009565b61358b8185614059565b935061359b81856020860161419f565b80840191505092915050565b60006135b4603283614048565b91506135bf82614390565b604082019050919050565b60006135d7602683614048565b91506135e2826143df565b604082019050919050565b60006135fa601c83614048565b91506136058261442e565b602082019050919050565b600061361d602183614048565b915061362882614457565b604082019050919050565b6000613640602483614048565b915061364b826144a6565b604082019050919050565b6000613663601983614048565b915061366e826144f5565b602082019050919050565b6000613686602b83614048565b91506136918261451e565b604082019050919050565b60006136a9602683614048565b91506136b48261456d565b604082019050919050565b60006136cc602c83614048565b91506136d7826145bc565b604082019050919050565b60006136ef603883614048565b91506136fa8261460b565b604082019050919050565b6000613712602a83614048565b915061371d8261465a565b604082019050919050565b6000613735602983614048565b9150613740826146a9565b604082019050919050565b6000613758602683614048565b9150613763826146f8565b604082019050919050565b600061377b602083614048565b915061378682614747565b602082019050919050565b600061379e602c83614048565b91506137a982614770565b604082019050919050565b60006137c1602c83614048565b91506137cc826147bf565b604082019050919050565b60006137e4602083614048565b91506137ef8261480e565b602082019050919050565b6000613807602983614048565b915061381282614837565b604082019050919050565b600061382a602f83614048565b915061383582614886565b604082019050919050565b600061384d601f83614048565b9150613858826148d5565b602082019050919050565b6000613870602183614048565b915061387b826148fe565b604082019050919050565b6000613893602083614048565b915061389e8261494d565b602082019050919050565b60006138b6603183614048565b91506138c182614976565b604082019050919050565b60006138d9601d83614048565b91506138e4826149c5565b602082019050919050565b60006138fc602a83614048565b9150613907826149ee565b604082019050919050565b600061391f601583614048565b915061392a82614a3d565b602082019050919050565b6000613942603983614048565b915061394d82614a66565b604082019050919050565b61396181614162565b82525050565b61397081614162565b82525050565b61398761398282614162565b614288565b82525050565b600061399982856134ad565b6020820191506139a98284613976565b6020820191508190509392505050565b60006139c582846134fd565b915081905092915050565b60006139dc8285613576565b91506139e88284613576565b91508190509392505050565b6000602082019050613a096000830184613429565b92915050565b6000608082019050613a246000830187613429565b613a316020830186613429565b613a3e6040830185613967565b8181036060830152613a5081846134c4565b905095945050505050565b6000604082019050613a706000830185613429565b613a7d6020830184613967565b9392505050565b6000606082019050613a996000830186613429565b613aa66020830185613967565b8181036040830152613ab881846134c4565b9050949350505050565b600060e082019050613ad76000830184613438565b92915050565b6000602082019050613af2600083018461348f565b92915050565b6000602082019050613b0d600083018461349e565b92915050565b6000604082019050613b28600083018561349e565b613b356020830184613967565b9392505050565b6000608082019050613b51600083018761349e565b613b5e6020830186613967565b613b6b6040830185613429565b613b786060830184613967565b95945050505050565b6000602082019050613b96600083018461352e565b92915050565b60006020820190508181036000830152613bb6818461353d565b905092915050565b60006020820190508181036000830152613bd7816135a7565b9050919050565b60006020820190508181036000830152613bf7816135ca565b9050919050565b60006020820190508181036000830152613c17816135ed565b9050919050565b60006020820190508181036000830152613c3781613610565b9050919050565b60006020820190508181036000830152613c5781613633565b9050919050565b60006020820190508181036000830152613c7781613656565b9050919050565b60006020820190508181036000830152613c9781613679565b9050919050565b60006020820190508181036000830152613cb78161369c565b9050919050565b60006020820190508181036000830152613cd7816136bf565b9050919050565b60006020820190508181036000830152613cf7816136e2565b9050919050565b60006020820190508181036000830152613d1781613705565b9050919050565b60006020820190508181036000830152613d3781613728565b9050919050565b60006020820190508181036000830152613d578161374b565b9050919050565b60006020820190508181036000830152613d778161376e565b9050919050565b60006020820190508181036000830152613d9781613791565b9050919050565b60006020820190508181036000830152613db7816137b4565b9050919050565b60006020820190508181036000830152613dd7816137d7565b9050919050565b60006020820190508181036000830152613df7816137fa565b9050919050565b60006020820190508181036000830152613e178161381d565b9050919050565b60006020820190508181036000830152613e3781613840565b9050919050565b60006020820190508181036000830152613e5781613863565b9050919050565b60006020820190508181036000830152613e7781613886565b9050919050565b60006020820190508181036000830152613e97816138a9565b9050919050565b60006020820190508181036000830152613eb7816138cc565b9050919050565b60006020820190508181036000830152613ed7816138ef565b9050919050565b60006020820190508181036000830152613ef781613912565b9050919050565b60006020820190508181036000830152613f1781613935565b9050919050565b6000602082019050613f336000830184613967565b92915050565b6000604082019050613f4e6000830185613967565b613f5b6020830184613967565b9392505050565b6000613f6c613f7d565b9050613f788282614204565b919050565b6000604051905090565b600067ffffffffffffffff821115613fa257613fa1614350565b5b613fab8261437f565b9050602081019050919050565b600067ffffffffffffffff821115613fd357613fd2614350565b5b613fdc8261437f565b9050602081019050919050565b6000819050919050565b600060079050919050565b600081519050919050565b600081519050919050565b6000602082019050919050565b600081905092915050565b600082825260208201905092915050565b600081905092915050565b600082825260208201905092915050565b600081905092915050565b600061406f82614162565b915061407a83614162565b9250827fffffffffffffffffffffffffffffffffffffffffffffffffffffffffffffffff038211156140af576140ae6142c3565b5b828201905092915050565b60006140c582614162565b91506140d083614162565b9250828210156140e3576140e26142c3565b5b828203905092915050565b60006140f982614142565b9050919050565b60008115159050919050565b6000819050919050565b60007fffffffff0000000000000000000000000000000000000000000000000000000082169050919050565b600073ffffffffffffffffffffffffffffffffffffffff82169050919050565b6000819050919050565b60006141778261417e565b9050919050565b600061418982614142565b9050919050565b82818337600083830152505050565b60005b838110156141bd5780820151818401526020810190506141a2565b838111156141cc576000848401525b50505050565b600060028204905060018216806141ea57607f821691505b602082108114156141fe576141fd614321565b5b50919050565b61420d8261437f565b810181811067ffffffffffffffff8211171561422c5761422b614350565b5b80604052505050565b600061424082614162565b91507fffffffffffffffffffffffffffffffffffffffffffffffffffffffffffffffff821415614273576142726142c3565b5b600182019050919050565b6000819050919050565b6000819050919050565b600061429d82614162565b91506142a883614162565b9250826142b8576142b76142f2565b5b828206905092915050565b7f4e487b7100000000000000000000000000000000000000000000000000000000600052601160045260246000fd5b7f4e487b7100000000000000000000000000000000000000000000000000000000600052601260045260246000fd5b7f4e487b7100000000000000000000000000000000000000000000000000000000600052602260045260246000fd5b7f4e487b7100000000000000000000000000000000000000000000000000000000600052604160045260246000fd5b6000601f19601f8301169050919050565b7f4552433732313a207472616e7366657220746f206e6f6e20455243373231526560008201527f63656976657220696d706c656d656e7465720000000000000000000000000000602082015250565b7f4f776e61626c653a206e6577206f776e657220697320746865207a65726f206160008201527f6464726573730000000000000000000000000000000000000000000000000000602082015250565b7f4552433732313a20746f6b656e20616c7265616479206d696e74656400000000600082015250565b7f4e6f7420656e6f7567682045544820746f20627579206120436f76696443617460008201527f2100000000000000000000000000000000000000000000000000000000000000602082015250565b7f4552433732313a207472616e7366657220746f20746865207a65726f2061646460008201527f7265737300000000000000000000000000000000000000000000000000000000602082015250565b7f4552433732313a20617070726f766520746f2063616c6c657200000000000000600082015250565b7f4e6f7420656e6f756768204c494e4b202d2066696c6c20636f6e74726163742060008201527f7769746820666175636574000000000000000000000000000000000000000000602082015250565b7f416464726573733a20696e73756666696369656e742062616c616e636520666f60008201527f722063616c6c0000000000000000000000000000000000000000000000000000602082015250565b7f4552433732313a206f70657261746f7220717565727920666f72206e6f6e657860008201527f697374656e7420746f6b656e0000000000000000000000000000000000000000602082015250565b7f4552433732313a20617070726f76652063616c6c6572206973206e6f74206f7760008201527f6e6572206e6f7220617070726f76656420666f7220616c6c0000000000000000602082015250565b7f4552433732313a2062616c616e636520717565727920666f7220746865207a6560008201527f726f206164647265737300000000000000000000000000000000000000000000602082015250565b7f4552433732313a206f776e657220717565727920666f72206e6f6e657869737460008201527f656e7420746f6b656e0000000000000000000000000000000000000000000000602082015250565b7f4e6f206d6f726520436f7669644361747320617661696c61626c6520746f206d60008201527f696e74203a280000000000000000000000000000000000000000000000000000602082015250565b7f4552433732313a206d696e7420746f20746865207a65726f2061646472657373600082015250565b7f4552433732313a20617070726f76656420717565727920666f72206e6f6e657860008201527f697374656e7420746f6b656e0000000000000000000000000000000000000000602082015250565b7f4552433732314d657461646174613a2055524920736574206f66206e6f6e657860008201527f697374656e7420746f6b656e0000000000000000000000000000000000000000602082015250565b7f4f776e61626c653a2063616c6c6572206973206e6f7420746865206f776e6572600082015250565b7f4552433732313a207472616e73666572206f6620746f6b656e2074686174206960008201527f73206e6f74206f776e0000000000000000000000000000000000000000000000602082015250565b7f4552433732314d657461646174613a2055524920717565727920666f72206e6f60008201527f6e6578697374656e7420746f6b656e0000000000000000000000000000000000602082015250565b7f4f6e6c7920565246436f6f7264696e61746f722063616e2066756c66696c6c00600082015250565b7f4552433732313a20617070726f76616c20746f2063757272656e74206f776e6560008201527f7200000000000000000000000000000000000000000000000000000000000000602082015250565b7f594f552043414e4e4f5420434c41494d20414e4f54484552204e465420594554600082015250565b7f4552433732313a207472616e736665722063616c6c6572206973206e6f74206f60008201527f776e6572206e6f7220617070726f766564000000000000000000000000000000602082015250565b7f416464726573733a2063616c6c20746f206e6f6e2d636f6e7472616374000000600082015250565b7f5361666545524332303a204552433230206f7065726174696f6e20646964206e60008201527f6f74207375636365656400000000000000000000000000000000000000000000602082015250565b7f4d696e74696e67206e6f74206f70656e20796574210000000000000000000000600082015250565b7f4f6e6c792074686520636f6e7472616374206f776e6572206f72204e4654206f60008201527f776e65722063616e207365742074686520746f6b656e55524900000000000000602082015250565b614abe816140ee565b8114614ac957600080fd5b50565b614ad581614100565b8114614ae057600080fd5b50565b614aec8161410c565b8114614af757600080fd5b50565b614b0381614116565b8114614b0e57600080fd5b50565b614b1a81614162565b8114614b2557600080fd5b5056fea2646970667358221220df51e39fe73f9a66d1572364bf3185d891c5ffcf667c63d263a5c2c63872e2b164736f6c63430008040033",
  "devdoc": {
    "kind": "dev",
    "methods": {
      "approve(address,uint256)": {
        "details": "See {IERC721-approve}."
      },
      "balanceOf(address)": {
        "details": "See {IERC721-balanceOf}."
      },
      "getApproved(uint256)": {
        "details": "See {IERC721-getApproved}."
      },
      "isApprovedForAll(address,address)": {
        "details": "See {IERC721-isApprovedForAll}."
      },
      "name()": {
        "details": "See {IERC721Metadata-name}."
      },
      "owner()": {
        "details": "Returns the address of the current owner."
      },
      "ownerOf(uint256)": {
        "details": "See {IERC721-ownerOf}."
      },
      "renounceOwnership()": {
        "details": "Leaves the contract without owner. It will not be possible to call `onlyOwner` functions anymore. Can only be called by the current owner. NOTE: Renouncing ownership will leave the contract without an owner, thereby removing any functionality that is only available to the owner."
      },
      "safeTransferFrom(address,address,uint256)": {
        "details": "See {IERC721-safeTransferFrom}."
      },
      "safeTransferFrom(address,address,uint256,bytes)": {
        "details": "See {IERC721-safeTransferFrom}."
      },
      "setApprovalForAll(address,bool)": {
        "details": "See {IERC721-setApprovalForAll}."
      },
      "supportsInterface(bytes4)": {
        "details": "See {IERC165-supportsInterface}."
      },
      "symbol()": {
        "details": "See {IERC721Metadata-symbol}."
      },
      "tokenURI(uint256)": {
        "details": "See {IERC721Metadata-tokenURI}."
      },
      "transferFrom(address,address,uint256)": {
        "details": "See {IERC721-transferFrom}."
      },
      "transferOwnership(address)": {
        "details": "Transfers ownership of the contract to a new account (`newOwner`). Can only be called by the current owner."
      }
    },
    "version": 1
  },
  "userdoc": {
    "kind": "user",
    "methods": {
      "claim()": {
        "notice": "Requests random number from Chainlink VRF function"
      },
      "remainingSupply()": {
        "notice": "NFT Helper Functions"
      }
    },
    "version": 1
  },
  "storageLayout": {
    "storage": [
      {
        "astId": 737,
        "contract": "contracts/CovidCats.sol:CovidCats",
        "label": "_name",
        "offset": 0,
        "slot": "0",
        "type": "t_string_storage"
      },
      {
        "astId": 739,
        "contract": "contracts/CovidCats.sol:CovidCats",
        "label": "_symbol",
        "offset": 0,
        "slot": "1",
        "type": "t_string_storage"
      },
      {
        "astId": 743,
        "contract": "contracts/CovidCats.sol:CovidCats",
        "label": "_owners",
        "offset": 0,
        "slot": "2",
        "type": "t_mapping(t_uint256,t_address)"
      },
      {
        "astId": 747,
        "contract": "contracts/CovidCats.sol:CovidCats",
        "label": "_balances",
        "offset": 0,
        "slot": "3",
        "type": "t_mapping(t_address,t_uint256)"
      },
      {
        "astId": 751,
        "contract": "contracts/CovidCats.sol:CovidCats",
        "label": "_tokenApprovals",
        "offset": 0,
        "slot": "4",
        "type": "t_mapping(t_uint256,t_address)"
      },
      {
        "astId": 757,
        "contract": "contracts/CovidCats.sol:CovidCats",
        "label": "_operatorApprovals",
        "offset": 0,
        "slot": "5",
        "type": "t_mapping(t_address,t_mapping(t_address,t_bool))"
      },
      {
        "astId": 79,
        "contract": "contracts/CovidCats.sol:CovidCats",
        "label": "nonces",
        "offset": 0,
        "slot": "6",
        "type": "t_mapping(t_bytes32,t_uint256)"
      },
      {
        "astId": 273,
        "contract": "contracts/CovidCats.sol:CovidCats",
        "label": "_owner",
        "offset": 0,
        "slot": "7",
        "type": "t_address"
      },
      {
        "astId": 380,
        "contract": "contracts/CovidCats.sol:CovidCats",
        "label": "_status",
        "offset": 0,
        "slot": "8",
        "type": "t_uint256"
      },
      {
        "astId": 2348,
        "contract": "contracts/CovidCats.sol:CovidCats",
        "label": "_tokenSupply",
        "offset": 0,
        "slot": "9",
        "type": "t_struct(Counter)2013_storage"
      },
      {
        "astId": 2357,
        "contract": "contracts/CovidCats.sol:CovidCats",
        "label": "saleIsActive",
        "offset": 0,
        "slot": "10",
        "type": "t_bool"
      },
      {
        "astId": 2361,
        "contract": "contracts/CovidCats.sol:CovidCats",
        "label": "_tokenURIs",
        "offset": 0,
        "slot": "11",
        "type": "t_mapping(t_uint256,t_string_storage)"
      },
      {
        "astId": 2363,
        "contract": "contracts/CovidCats.sol:CovidCats",
        "label": "_baseTokenURI",
        "offset": 0,
        "slot": "12",
        "type": "t_string_storage"
      },
      {
        "astId": 2375,
        "contract": "contracts/CovidCats.sol:CovidCats",
        "label": "keyHash",
        "offset": 0,
        "slot": "13",
        "type": "t_bytes32"
      },
      {
        "astId": 2377,
        "contract": "contracts/CovidCats.sol:CovidCats",
        "label": "fee",
        "offset": 0,
        "slot": "14",
        "type": "t_uint256"
      },
      {
        "astId": 2381,
        "contract": "contracts/CovidCats.sol:CovidCats",
        "label": "requestToSender",
        "offset": 0,
        "slot": "15",
        "type": "t_mapping(t_bytes32,t_address)"
      },
      {
        "astId": 2385,
        "contract": "contracts/CovidCats.sol:CovidCats",
        "label": "isClaiming",
        "offset": 0,
        "slot": "16",
        "type": "t_mapping(t_address,t_bool)"
      },
      {
        "astId": 2388,
        "contract": "contracts/CovidCats.sol:CovidCats",
        "label": "LINK_token",
        "offset": 0,
        "slot": "17",
        "type": "t_contract(IERC20)487"
      }
    ],
    "types": {
      "t_address": {
        "encoding": "inplace",
        "label": "address",
        "numberOfBytes": "20"
      },
      "t_bool": {
        "encoding": "inplace",
        "label": "bool",
        "numberOfBytes": "1"
      },
      "t_bytes32": {
        "encoding": "inplace",
        "label": "bytes32",
        "numberOfBytes": "32"
      },
      "t_contract(IERC20)487": {
        "encoding": "inplace",
        "label": "contract IERC20",
        "numberOfBytes": "20"
      },
      "t_mapping(t_address,t_bool)": {
        "encoding": "mapping",
        "key": "t_address",
        "label": "mapping(address => bool)",
        "numberOfBytes": "32",
        "value": "t_bool"
      },
      "t_mapping(t_address,t_mapping(t_address,t_bool))": {
        "encoding": "mapping",
        "key": "t_address",
        "label": "mapping(address => mapping(address => bool))",
        "numberOfBytes": "32",
        "value": "t_mapping(t_address,t_bool)"
      },
      "t_mapping(t_address,t_uint256)": {
        "encoding": "mapping",
        "key": "t_address",
        "label": "mapping(address => uint256)",
        "numberOfBytes": "32",
        "value": "t_uint256"
      },
      "t_mapping(t_bytes32,t_address)": {
        "encoding": "mapping",
        "key": "t_bytes32",
        "label": "mapping(bytes32 => address)",
        "numberOfBytes": "32",
        "value": "t_address"
      },
      "t_mapping(t_bytes32,t_uint256)": {
        "encoding": "mapping",
        "key": "t_bytes32",
        "label": "mapping(bytes32 => uint256)",
        "numberOfBytes": "32",
        "value": "t_uint256"
      },
      "t_mapping(t_uint256,t_address)": {
        "encoding": "mapping",
        "key": "t_uint256",
        "label": "mapping(uint256 => address)",
        "numberOfBytes": "32",
        "value": "t_address"
      },
      "t_mapping(t_uint256,t_string_storage)": {
        "encoding": "mapping",
        "key": "t_uint256",
        "label": "mapping(uint256 => string)",
        "numberOfBytes": "32",
        "value": "t_string_storage"
      },
      "t_string_storage": {
        "encoding": "bytes",
        "label": "string",
        "numberOfBytes": "32"
      },
      "t_struct(Counter)2013_storage": {
        "encoding": "inplace",
        "label": "struct Counters.Counter",
        "members": [
          {
            "astId": 2012,
            "contract": "contracts/CovidCats.sol:CovidCats",
            "label": "_value",
            "offset": 0,
            "slot": "0",
            "type": "t_uint256"
          }
        ],
        "numberOfBytes": "32"
      },
      "t_uint256": {
        "encoding": "inplace",
        "label": "uint256",
        "numberOfBytes": "32"
      }
    }
  }
}